{
  "contractName": "Store",
  "abi": [
    {
      "inputs": [
        {
          "internalType": "string",
          "name": "point",
          "type": "string"
        }
      ],
      "name": "addString",
      "outputs": [],
      "stateMutability": "nonpayable",
      "type": "function"
    },
    {
      "inputs": [],
      "name": "getAll",
      "outputs": [
        {
          "components": [
            {
              "internalType": "uint256",
              "name": "id",
              "type": "uint256"
            },
            {
              "internalType": "string",
              "name": "stringPoint",
              "type": "string"
            }
          ],
          "internalType": "struct Store.StorePoint[]",
          "name": "",
          "type": "tuple[]"
        }
      ],
      "stateMutability": "view",
      "type": "function",
      "constant": true
    },
    {
      "inputs": [
        {
          "internalType": "uint256",
          "name": "id",
          "type": "uint256"
        },
        {
          "internalType": "string",
          "name": "updated",
          "type": "string"
        }
      ],
      "name": "updateStore",
      "outputs": [],
      "stateMutability": "nonpayable",
      "type": "function"
    }
  ],
  "bytecode": "0x608060405234801561001057600080fd5b50610a7e806100206000396000f3fe608060405234801561001057600080fd5b506004361061005e576000357c0100000000000000000000000000000000000000000000000000000000900480631c7828bb1461006357806353ed51431461007f5780639874f5d71461009d575b600080fd5b61007d600480360381019061007891906104e1565b6100b9565b005b610087610132565b60405161009491906106ca565b60405180910390f35b6100b760048036038101906100b291906106ec565b610269565b005b60008060003373ffffffffffffffffffffffffffffffffffffffff1673ffffffffffffffffffffffffffffffffffffffff168152602001908152602001600020838154811061010b5761010a610735565b5b906000526020600020906002020190508181600101908161012c9190610976565b50505050565b60606000803373ffffffffffffffffffffffffffffffffffffffff1673ffffffffffffffffffffffffffffffffffffffff168152602001908152602001600020805480602002602001604051908101604052809291908181526020016000905b828210156102605783829060005260206000209060020201604051806040016040529081600082015481526020016001820180546101cf90610793565b80601f01602080910402602001604051908101604052809291908181526020018280546101fb90610793565b80156102485780601f1061021d57610100808354040283529160200191610248565b820191906000526020600020905b81548152906001019060200180831161022b57829003601f168201915b50505050508152505081526020019060010190610192565b50505050905090565b60008060003373ffffffffffffffffffffffffffffffffffffffff1673ffffffffffffffffffffffffffffffffffffffff1681526020019081526020016000208054905090506000803373ffffffffffffffffffffffffffffffffffffffff1673ffffffffffffffffffffffffffffffffffffffff168152602001908152602001600020604051806040016040528083815260200184815250908060018154018082558091505060019003906000526020600020906002020160009091909190915060008201518160000155602082015181600101908161034a9190610976565b5050505050565b6000604051905090565b600080fd5b600080fd5b6000819050919050565b61037881610365565b811461038357600080fd5b50565b6000813590506103958161036f565b92915050565b600080fd5b600080fd5b6000601f19601f8301169050919050565b7f4e487b7100000000000000000000000000000000000000000000000000000000600052604160045260246000fd5b6103ee826103a5565b810181811067ffffffffffffffff8211171561040d5761040c6103b6565b5b80604052505050565b6000610420610351565b905061042c82826103e5565b919050565b600067ffffffffffffffff82111561044c5761044b6103b6565b5b610455826103a5565b9050602081019050919050565b82818337600083830152505050565b600061048461047f84610431565b610416565b9050828152602081018484840111156104a05761049f6103a0565b5b6104ab848285610462565b509392505050565b600082601f8301126104c8576104c761039b565b5b81356104d8848260208601610471565b91505092915050565b600080604083850312156104f8576104f761035b565b5b600061050685828601610386565b925050602083013567ffffffffffffffff81111561052757610526610360565b5b610533858286016104b3565b9150509250929050565b600081519050919050565b600082825260208201905092915050565b6000819050602082019050919050565b61057281610365565b82525050565b600081519050919050565b600082825260208201905092915050565b60005b838110156105b2578082015181840152602081019050610597565b60008484015250505050565b60006105c982610578565b6105d38185610583565b93506105e3818560208601610594565b6105ec816103a5565b840191505092915050565b600060408301600083015161060f6000860182610569565b506020830151848203602086015261062782826105be565b9150508091505092915050565b600061064083836105f7565b905092915050565b6000602082019050919050565b60006106608261053d565b61066a8185610548565b93508360208202850161067c85610559565b8060005b858110156106b857848403895281516106998582610634565b94506106a483610648565b925060208a01995050600181019050610680565b50829750879550505050505092915050565b600060208201905081810360008301526106e48184610655565b905092915050565b6000602082840312156107025761070161035b565b5b600082013567ffffffffffffffff8111156107205761071f610360565b5b61072c848285016104b3565b91505092915050565b7f4e487b7100000000000000000000000000000000000000000000000000000000600052603260045260246000fd5b7f4e487b7100000000000000000000000000000000000000000000000000000000600052602260045260246000fd5b600060028204905060018216806107ab57607f821691505b6020821081036107be576107bd610764565b5b50919050565b60008190508160005260206000209050919050565b60006020601f8301049050919050565b60008160020a8302905092915050565b6000600883026108297fffffffffffffffffffffffffffffffffffffffffffffffffffffffffffffffff826107e9565b61083386836107e9565b95508019841693508086168417925050509392505050565b6000819050919050565b600061087061086b61086684610365565b61084b565b610365565b9050919050565b6000819050919050565b61088a83610855565b61089e61089682610877565b8484546107f9565b825550505050565b600090565b6108b36108a6565b6108be818484610881565b505050565b5b818110156108e2576108d76000826108ab565b6001810190506108c4565b5050565b601f821115610927576108f8816107c4565b610901846107d9565b81016020851015610910578190505b61092461091c856107d9565b8301826108c3565b50505b505050565b60008160020a8304905092915050565b600061094d6000198460080261092c565b1980831691505092915050565b6000610966838361093c565b9150826002028217905092915050565b61097f82610578565b67ffffffffffffffff811115610998576109976103b6565b5b6109a28254610793565b6109ad8282856108e6565b600060209050601f8311600181146109e057600084156109ce578287015190505b6109d8858261095a565b865550610a40565b601f1984166109ee866107c4565b60005b82811015610a16578489015182556001820191506020850194506020810190506109f1565b86831015610a335784890151610a2f601f89168261093c565b8355505b6001600288020188555050505b50505050505056fea26469706673582212205319618ae905d78f82249aacfd9341655f8d85a1d15ba8dcea3b540d8724633664736f6c63430008150033",
  "immutableReferences": {},
  "source": "// SPDX-License-Identifier: MIT\npragma solidity >=0.4.22 <0.9.0;\n\ncontract Store {\n  \n  struct StorePoint {\n    uint256 id;\n    string stringPoint;\n  }\n\n  mapping (address=>StorePoint[]) storeView;\n  \n  function addString(string memory point)public {\n    uint256 id = storeView[msg.sender].length;\n    storeView[msg.sender].push(StorePoint(id, point));\n  }\n  \n  function getAll()public view returns(StorePoint[] memory){\n    return storeView[msg.sender];\n  }\n\n  function updateStore(uint256 id,string memory updated) public {\n    StorePoint storage store = storeView[msg.sender][id];\n    store.stringPoint=updated;\n  }\n\n}\n",
  "sourcePath": "C:\\Users\\varsh\\Desktop\\CODE\\BACKEND\\Blocks\\contracts\\Store.sol",
  "compiler": {
    "name": "solc",
    "version": "0.8.21+commit.d9974bed.Emscripten.clang"
  },
  "schemaVersion": "3.4.16",
  "updatedAt": "2026-01-29T11:10:21.057Z",
  "networkType": "ethereum",
  "devdoc": {
    "kind": "dev",
    "methods": {},
    "version": 1
  },
  "userdoc": {
    "kind": "user",
    "methods": {},
    "version": 1
  }
}